{
  "contractName": "Campaign",
  "abi": [
    {
      "inputs": [
        {
          "internalType": "string",
          "name": "campaignName",
          "type": "string"
        },
        {
          "internalType": "uint256",
          "name": "minimum",
          "type": "uint256"
        },
        {
          "internalType": "address",
          "name": "creator",
          "type": "address"
        },
        {
          "internalType": "string",
          "name": "desc",
          "type": "string"
        }
      ],
      "stateMutability": "nonpayable",
      "type": "constructor"
    },
    {
      "inputs": [
        {
          "internalType": "address",
          "name": "",
          "type": "address"
        }
      ],
      "name": "approvers",
      "outputs": [
        {
          "internalType": "bool",
          "name": "",
          "type": "bool"
        }
      ],
      "stateMutability": "view",
      "type": "function"
    },
    {
      "inputs": [],
      "name": "approversCount",
      "outputs": [
        {
          "internalType": "uint256",
          "name": "",
          "type": "uint256"
        }
      ],
      "stateMutability": "view",
      "type": "function"
    },
    {
      "inputs": [],
      "name": "description",
      "outputs": [
        {
          "internalType": "string",
          "name": "",
          "type": "string"
        }
      ],
      "stateMutability": "view",
      "type": "function"
    },
    {
      "inputs": [],
      "name": "fundReceived",
      "outputs": [
        {
          "internalType": "uint256",
          "name": "",
          "type": "uint256"
        }
      ],
      "stateMutability": "view",
      "type": "function"
    },
    {
      "inputs": [],
      "name": "manager",
      "outputs": [
        {
          "internalType": "address",
          "name": "",
          "type": "address"
        }
      ],
      "stateMutability": "view",
      "type": "function"
    },
    {
      "inputs": [],
      "name": "minimumContribution",
      "outputs": [
        {
          "internalType": "uint256",
          "name": "",
          "type": "uint256"
        }
      ],
      "stateMutability": "view",
      "type": "function"
    },
    {
      "inputs": [],
      "name": "name",
      "outputs": [
        {
          "internalType": "string",
          "name": "",
          "type": "string"
        }
      ],
      "stateMutability": "view",
      "type": "function"
    },
    {
      "inputs": [],
      "name": "numberOfRequests",
      "outputs": [
        {
          "internalType": "uint256",
          "name": "",
          "type": "uint256"
        }
      ],
      "stateMutability": "view",
      "type": "function"
    },
    {
      "inputs": [
        {
          "internalType": "uint256",
          "name": "",
          "type": "uint256"
        }
      ],
      "name": "requests",
      "outputs": [
        {
          "internalType": "string",
          "name": "description",
          "type": "string"
        },
        {
          "internalType": "uint256",
          "name": "value",
          "type": "uint256"
        },
        {
          "internalType": "address payable",
          "name": "recipient",
          "type": "address"
        },
        {
          "internalType": "bool",
          "name": "complete",
          "type": "bool"
        },
        {
          "internalType": "uint256",
          "name": "approvalCount",
          "type": "uint256"
        }
      ],
      "stateMutability": "view",
      "type": "function"
    },
    {
      "inputs": [],
      "name": "contribute",
      "outputs": [],
      "stateMutability": "payable",
      "type": "function"
    },
    {
      "inputs": [
        {
          "internalType": "string",
          "name": "descrip",
          "type": "string"
        },
        {
          "internalType": "uint256",
          "name": "amountNeed",
          "type": "uint256"
        },
        {
          "internalType": "address payable",
          "name": "recip",
          "type": "address"
        }
      ],
      "name": "createRequest",
      "outputs": [
        {
          "internalType": "uint256",
          "name": "requestId",
          "type": "uint256"
        }
      ],
      "stateMutability": "nonpayable",
      "type": "function"
    },
    {
      "inputs": [
        {
          "internalType": "uint256",
          "name": "index",
          "type": "uint256"
        }
      ],
      "name": "approveRequests",
      "outputs": [],
      "stateMutability": "nonpayable",
      "type": "function"
    },
    {
      "inputs": [
        {
          "internalType": "uint256",
          "name": "index",
          "type": "uint256"
        }
      ],
      "name": "finalizeRequest",
      "outputs": [],
      "stateMutability": "nonpayable",
      "type": "function"
    },
    {
      "inputs": [],
      "name": "getSummary",
      "outputs": [
        {
          "internalType": "string",
          "name": "",
          "type": "string"
        },
        {
          "internalType": "address",
          "name": "",
          "type": "address"
        },
        {
          "internalType": "uint256",
          "name": "",
          "type": "uint256"
        },
        {
          "internalType": "uint256",
          "name": "",
          "type": "uint256"
        },
        {
          "internalType": "uint256",
          "name": "",
          "type": "uint256"
        },
        {
          "internalType": "uint256",
          "name": "",
          "type": "uint256"
        },
        {
          "internalType": "string",
          "name": "",
          "type": "string"
        }
      ],
      "stateMutability": "view",
      "type": "function"
    }
  ],
  "bytecode": "0x60806040523480156200001157600080fd5b5060405162001c4738038062001c4783398181016040528101906200003791906200020b565b81600160006101000a81548173ffffffffffffffffffffffffffffffffffffffff021916908373ffffffffffffffffffffffffffffffffffffffff16021790555082600281905550806008908051906020019062000097929190620000bb565b508360009080519060200190620000b0929190620000bb565b50505050506200044c565b828054620000c99062000384565b90600052602060002090601f016020900481019282620000ed576000855562000139565b82601f106200010857805160ff191683800117855562000139565b8280016001018555821562000139579182015b82811115620001385782518255916020019190600101906200011b565b5b5090506200014891906200014c565b5090565b5b80821115620001675760008160009055506001016200014d565b5090565b6000620001826200017c84620002dd565b620002a9565b9050828152602081018484840111156200019b57600080fd5b620001a88482856200034e565b509392505050565b600081519050620001c18162000418565b92915050565b600082601f830112620001d957600080fd5b8151620001eb8482602086016200016b565b91505092915050565b600081519050620002058162000432565b92915050565b600080600080608085870312156200022257600080fd5b600085015167ffffffffffffffff8111156200023d57600080fd5b6200024b87828801620001c7565b94505060206200025e87828801620001f4565b93505060406200027187828801620001b0565b925050606085015167ffffffffffffffff8111156200028f57600080fd5b6200029d87828801620001c7565b91505092959194509250565b6000604051905081810181811067ffffffffffffffff82111715620002d357620002d2620003e9565b5b8060405250919050565b600067ffffffffffffffff821115620002fb57620002fa620003e9565b5b601f19601f8301169050602081019050919050565b60006200031d8262000324565b9050919050565b600073ffffffffffffffffffffffffffffffffffffffff82169050919050565b6000819050919050565b60005b838110156200036e57808201518184015260208101905062000351565b838111156200037e576000848401525b50505050565b600060028204905060018216806200039d57607f821691505b60208210811415620003b457620003b3620003ba565b5b50919050565b7f4e487b7100000000000000000000000000000000000000000000000000000000600052602260045260246000fd5b7f4e487b7100000000000000000000000000000000000000000000000000000000600052604160045260246000fd5b620004238162000310565b81146200042f57600080fd5b50565b6200043d8162000344565b81146200044957600080fd5b50565b6117eb806200045c6000396000f3fe6080604052600436106100fa576000357c0100000000000000000000000000000000000000000000000000000000900480637284e4161161009c5780638a9cfd55116100765780638a9cfd55146102d7578063937e09b114610314578063cf5699771461033f578063d7bb99ba1461036a576100fa565b80637284e4161461024057806381d12c581461026b57806382fde093146102ac576100fa565b80634051ddac116100d85780634051ddac1461019057806341151405146101c1578063481c6a75146101ec5780634e08ac8514610217576100fa565b806303441006146100ff57806306fdde03146101285780630a14439114610153575b600080fd5b34801561010b57600080fd5b5061012660048036038101906101219190610f34565b610374565b005b34801561013457600080fd5b5061013d6105b7565b60405161014a9190611260565b60405180910390f35b34801561015f57600080fd5b5061017a60048036038101906101759190610ea4565b610645565b6040516101879190611245565b60405180910390f35b34801561019c57600080fd5b506101a5610665565b6040516101b89796959493929190611282565b60405180910390f35b3480156101cd57600080fd5b506101d66107d3565b6040516101e39190611439565b60405180910390f35b3480156101f857600080fd5b506102016107d9565b60405161020e919061122a565b60405180910390f35b34801561022357600080fd5b5061023e60048036038101906102399190610f34565b6107ff565b005b34801561024c57600080fd5b506102556109a9565b6040516102629190611260565b60405180910390f35b34801561027757600080fd5b50610292600480360381019061028d9190610f34565b610a37565b6040516102a39594939291906112ff565b60405180910390f35b3480156102b857600080fd5b506102c1610b22565b6040516102ce9190611439565b60405180910390f35b3480156102e357600080fd5b506102fe60048036038101906102f99190610ecd565b610b28565b60405161030b9190611439565b60405180910390f35b34801561032057600080fd5b50610329610c7e565b6040516103369190611439565b60405180910390f35b34801561034b57600080fd5b50610354610c84565b6040516103619190611439565b60405180910390f35b610372610c8a565b005b600160009054906101000a900473ffffffffffffffffffffffffffffffffffffffff1673ffffffffffffffffffffffffffffffffffffffff163373ffffffffffffffffffffffffffffffffffffffff1614610404576040517f08c379a00000000000000000000000000000000000000000000000000000000081526004016103fb90611419565b60405180910390fd5b6000600460008381526020019081526020016000209050600260065461042a9190611527565b81600301541161046f576040517f08c379a0000000000000000000000000000000000000000000000000000000008152600401610466906113b9565b60405180910390fd5b8060020160149054906101000a900460ff16156104c1576040517f08c379a00000000000000000000000000000000000000000000000000000000081526004016104b890611359565b60405180910390fd5b6007548160010154111561050a576040517f08c379a0000000000000000000000000000000000000000000000000000000008152600401610501906113f9565b60405180910390fd5b8060020160009054906101000a900473ffffffffffffffffffffffffffffffffffffffff1673ffffffffffffffffffffffffffffffffffffffff166108fc82600101549081150290604051600060405180830381858888f19350505050158015610578573d6000803e3d6000fd5b5080600101546007600082825461058f9190611558565b9250508190555060018160020160146101000a81548160ff0219169083151502179055505050565b600080546105c490611628565b80601f01602080910402602001604051908101604052809291908181526020018280546105f090611628565b801561063d5780601f106106125761010080835404028352916020019161063d565b820191906000526020600020905b81548152906001019060200180831161062057829003601f168201915b505050505081565b60036020528060005260406000206000915054906101000a900460ff1681565b6060600080600080600060606000600160009054906101000a900473ffffffffffffffffffffffffffffffffffffffff1660025460055460065460075460088680546106b090611628565b80601f01602080910402602001604051908101604052809291908181526020018280546106dc90611628565b80156107295780601f106106fe57610100808354040283529160200191610729565b820191906000526020600020905b81548152906001019060200180831161070c57829003601f168201915b5050505050965080805461073c90611628565b80601f016020809104026020016040519081016040528092919081815260200182805461076890611628565b80156107b55780601f1061078a576101008083540402835291602001916107b5565b820191906000526020600020905b81548152906001019060200180831161079857829003601f168201915b50505050509050965096509650965096509650965090919293949596565b60075481565b600160009054906101000a900473ffffffffffffffffffffffffffffffffffffffff1681565b6000600460008381526020019081526020016000209050600360003373ffffffffffffffffffffffffffffffffffffffff1673ffffffffffffffffffffffffffffffffffffffff16815260200190815260200160002060009054906101000a900460ff166108a2576040517f08c379a000000000000000000000000000000000000000000000000000000000815260040161089990611379565b60405180910390fd5b8060040160003373ffffffffffffffffffffffffffffffffffffffff1673ffffffffffffffffffffffffffffffffffffffff16815260200190815260200160002060009054906101000a900460ff1615610931576040517f08c379a000000000000000000000000000000000000000000000000000000000815260040161092890611399565b60405180910390fd5b8060030160008154809291906109469061165a565b919050555060018160040160003373ffffffffffffffffffffffffffffffffffffffff1673ffffffffffffffffffffffffffffffffffffffff16815260200190815260200160002060006101000a81548160ff0219169083151502179055505050565b600880546109b690611628565b80601f01602080910402602001604051908101604052809291908181526020018280546109e290611628565b8015610a2f5780601f10610a0457610100808354040283529160200191610a2f565b820191906000526020600020905b815481529060010190602001808311610a1257829003601f168201915b505050505081565b6004602052806000526040600020600091509050806000018054610a5a90611628565b80601f0160208091040260200160405190810160405280929190818152602001828054610a8690611628565b8015610ad35780601f10610aa857610100808354040283529160200191610ad3565b820191906000526020600020905b815481529060010190602001808311610ab657829003601f168201915b5050505050908060010154908060020160009054906101000a900473ffffffffffffffffffffffffffffffffffffffff16908060020160149054906101000a900460ff16908060030154905085565b60065481565b6000600160009054906101000a900473ffffffffffffffffffffffffffffffffffffffff1673ffffffffffffffffffffffffffffffffffffffff163373ffffffffffffffffffffffffffffffffffffffff1614610bba576040517f08c379a0000000000000000000000000000000000000000000000000000000008152600401610bb190611419565b60405180910390fd5b60056000815480929190610bcd9061165a565b919050559050600060046000838152602001908152602001600020905084816000019080519060200190610c02929190610d5a565b50838160010181905550828160020160006101000a81548173ffffffffffffffffffffffffffffffffffffffff021916908373ffffffffffffffffffffffffffffffffffffffff16021790555060008160020160146101000a81548160ff02191690831515021790555060008160030181905550509392505050565b60025481565b60055481565b600254341015610ccf576040517f08c379a0000000000000000000000000000000000000000000000000000000008152600401610cc6906113d9565b60405180910390fd5b6001600360003373ffffffffffffffffffffffffffffffffffffffff1673ffffffffffffffffffffffffffffffffffffffff16815260200190815260200160002060006101000a81548160ff02191690831515021790555060066000815480929190610d3a9061165a565b91905055503460076000828254610d5191906114d1565b92505081905550565b828054610d6690611628565b90600052602060002090601f016020900481019282610d885760008555610dcf565b82601f10610da157805160ff1916838001178555610dcf565b82800160010185558215610dcf579182015b82811115610dce578251825591602001919060010190610db3565b5b509050610ddc9190610de0565b5090565b5b80821115610df9576000816000905550600101610de1565b5090565b6000610e10610e0b84611485565b611454565b905082815260208101848484011115610e2857600080fd5b610e338482856115e6565b509392505050565b600081359050610e4a81611770565b92915050565b600081359050610e5f81611787565b92915050565b600082601f830112610e7657600080fd5b8135610e86848260208601610dfd565b91505092915050565b600081359050610e9e8161179e565b92915050565b600060208284031215610eb657600080fd5b6000610ec484828501610e3b565b91505092915050565b600080600060608486031215610ee257600080fd5b600084013567ffffffffffffffff811115610efc57600080fd5b610f0886828701610e65565b9350506020610f1986828701610e8f565b9250506040610f2a86828701610e50565b9150509250925092565b600060208284031215610f4657600080fd5b6000610f5484828501610e8f565b91505092915050565b610f668161159e565b82525050565b610f758161158c565b82525050565b610f84816115b0565b82525050565b6000610f95826114b5565b610f9f81856114c0565b9350610faf8185602086016115f5565b610fb88161175f565b840191505092915050565b6000610fd06021836114c0565b91507f5265717565737420616c726561647920686173206265656e2066696e616c697a60008301527f65000000000000000000000000000000000000000000000000000000000000006020830152604082019050919050565b60006110366013836114c0565b91507f596f752068617665206e6f742066756e646564000000000000000000000000006000830152602082019050919050565b60006110766025836114c0565b91507f596f75206861766520616c726561647920617070726f7665642074686520726560008301527f71756573740000000000000000000000000000000000000000000000000000006020830152604082019050919050565b60006110dc6028836114c0565b91507f446f6e2774206861766520656e6f75676820617070726f76616c7320666f722060008301527f66696e616c697a650000000000000000000000000000000000000000000000006020830152604082019050919050565b60006111426022836114c0565b91507f506c6561736520706179206174206c65617374206d696e696d756d20616d6f7560008301527f6e740000000000000000000000000000000000000000000000000000000000006020830152604082019050919050565b60006111a8601d836114c0565b91507f5472616e73666572696e67206d6f7265207468616e20696e2066756e640000006000830152602082019050919050565b60006111e86016836114c0565b91507f596f7520617265206e6f7420617574686f72697a6564000000000000000000006000830152602082019050919050565b611224816115dc565b82525050565b600060208201905061123f6000830184610f6c565b92915050565b600060208201905061125a6000830184610f7b565b92915050565b6000602082019050818103600083015261127a8184610f8a565b905092915050565b600060e082019050818103600083015261129c818a610f8a565b90506112ab6020830189610f6c565b6112b8604083018861121b565b6112c5606083018761121b565b6112d2608083018661121b565b6112df60a083018561121b565b81810360c08301526112f18184610f8a565b905098975050505050505050565b600060a08201905081810360008301526113198188610f8a565b9050611328602083018761121b565b6113356040830186610f5d565b6113426060830185610f7b565b61134f608083018461121b565b9695505050505050565b6000602082019050818103600083015261137281610fc3565b9050919050565b6000602082019050818103600083015261139281611029565b9050919050565b600060208201905081810360008301526113b281611069565b9050919050565b600060208201905081810360008301526113d2816110cf565b9050919050565b600060208201905081810360008301526113f281611135565b9050919050565b600060208201905081810360008301526114128161119b565b9050919050565b60006020820190508181036000830152611432816111db565b9050919050565b600060208201905061144e600083018461121b565b92915050565b6000604051905081810181811067ffffffffffffffff8211171561147b5761147a611730565b5b8060405250919050565b600067ffffffffffffffff8211156114a05761149f611730565b5b601f19601f8301169050602081019050919050565b600081519050919050565b600082825260208201905092915050565b60006114dc826115dc565b91506114e7836115dc565b9250827fffffffffffffffffffffffffffffffffffffffffffffffffffffffffffffffff0382111561151c5761151b6116a3565b5b828201905092915050565b6000611532826115dc565b915061153d836115dc565b92508261154d5761154c6116d2565b5b828204905092915050565b6000611563826115dc565b915061156e836115dc565b925082821015611581576115806116a3565b5b828203905092915050565b6000611597826115bc565b9050919050565b60006115a9826115bc565b9050919050565b60008115159050919050565b600073ffffffffffffffffffffffffffffffffffffffff82169050919050565b6000819050919050565b82818337600083830152505050565b60005b838110156116135780820151818401526020810190506115f8565b83811115611622576000848401525b50505050565b6000600282049050600182168061164057607f821691505b6020821081141561165457611653611701565b5b50919050565b6000611665826115dc565b91507fffffffffffffffffffffffffffffffffffffffffffffffffffffffffffffffff821415611698576116976116a3565b5b600182019050919050565b7f4e487b7100000000000000000000000000000000000000000000000000000000600052601160045260246000fd5b7f4e487b7100000000000000000000000000000000000000000000000000000000600052601260045260246000fd5b7f4e487b7100000000000000000000000000000000000000000000000000000000600052602260045260246000fd5b7f4e487b7100000000000000000000000000000000000000000000000000000000600052604160045260246000fd5b6000601f19601f8301169050919050565b6117798161158c565b811461178457600080fd5b50565b6117908161159e565b811461179b57600080fd5b50565b6117a7816115dc565b81146117b257600080fd5b5056fea2646970667358221220fe58ece8eee8f7ada89d09921dcb6002ac518442888d41dfe87bbd3ef03b5cd864736f6c63430008000033",
  "immutableReferences": {},
  "source": "// SPDX-License-Identifier: MIT\r\npragma solidity ^0.8.0;\r\n\r\ncontract Campaign {\r\n    string public name;\r\n    address public manager;\r\n    uint public minimumContribution;\r\n    mapping(address => bool) public approvers;\r\n    mapping(uint => Request) public requests;\r\n    uint public numberOfRequests;\r\n    uint public approversCount;\r\n    uint public fundReceived;\r\n    string public description;\r\n\r\n    struct Request {\r\n        string description;\r\n        uint value;\r\n        address payable recipient;\r\n        bool complete;\r\n        uint approvalCount;\r\n        mapping(address => bool) whoApproved;\r\n    }\r\n\r\n    modifier onlyOwner(){\r\n        require(msg.sender == manager, \"You are not authorized\");\r\n        _;\r\n    }\r\n\r\n    constructor (string memory campaignName, uint minimum, address creator, string memory desc) {\r\n        manager = creator;\r\n        minimumContribution = minimum;\r\n        description = desc;\r\n        name = campaignName;\r\n    }\r\n\r\n    function contribute() public payable {\r\n        require(msg.value >= minimumContribution, \"Please pay at least minimum amount\");\r\n\r\n        approvers[msg.sender] = true;\r\n        approversCount++;\r\n        fundReceived += msg.value;\r\n    }\r\n\r\n    function createRequest(string memory descrip, uint amountNeed, address payable recip) public onlyOwner returns(uint requestId) {\r\n\r\n        requestId = numberOfRequests++;\r\n        Request storage newRequest = requests[requestId];\r\n\r\n        newRequest.description = descrip;\r\n        newRequest.value = amountNeed;\r\n        newRequest.recipient = recip;\r\n        newRequest.complete = false;\r\n        newRequest.approvalCount = 0;\r\n\r\n        return requestId;\r\n\r\n    \r\n    }\r\n\r\n    function approveRequests(uint index) public {\r\n        Request storage request = requests[index];\r\n        require(approvers[msg.sender], \"You have not funded\");\r\n        require(!request.whoApproved[msg.sender], \"You have already approved the request\");\r\n\r\n        request.approvalCount++;\r\n        request.whoApproved[msg.sender] = true;\r\n\r\n    }\r\n\r\n    function finalizeRequest(uint index) public onlyOwner {\r\n        Request storage request = requests[index];\r\n        \r\n        require(request.approvalCount > (approversCount / 2), \"Don't have enough approvals for finalize\");\r\n        require(!request.complete, \"Request already has been finalize\");\r\n        require(request.value <= fundReceived, \"Transfering more than in fund\");\r\n\r\n        request.recipient.transfer(request.value); \r\n        fundReceived -= request.value;\r\n        request.complete = true;\r\n    }\r\n\r\n\r\n    function getSummary() public view returns(\r\n        string memory , address, uint, uint, uint, uint, string memory\r\n    ) {\r\n        return (\r\n            name,\r\n            manager,\r\n            minimumContribution,\r\n            numberOfRequests,\r\n            approversCount,\r\n            fundReceived,\r\n            description\r\n        );\r\n    }\r\n\r\n    \r\n   \r\n}\r\n\r\n",
  "sourcePath": "D:\\projects\\etherium\\erc720\\crowdfunding\\contracts\\Campaign.sol",
  "compiler": {
    "name": "solc",
    "version": "0.8.0+commit.c7dfd78e.Emscripten.clang"
  },
  "schemaVersion": "3.4.5",
  "updatedAt": "2022-05-06T17:32:08.927Z",
  "devdoc": {
    "kind": "dev",
    "methods": {},
    "version": 1
  },
  "userdoc": {
    "kind": "user",
    "methods": {},
    "version": 1
  }
}