{
  "contractName": "CrowdFunding",
  "abi": [
    {
      "inputs": [
        {
          "internalType": "uint256",
          "name": "",
          "type": "uint256"
        }
      ],
      "name": "numberOfCampaigns",
      "outputs": [
        {
          "internalType": "address",
          "name": "",
          "type": "address"
        }
      ],
      "stateMutability": "view",
      "type": "function",
      "constant": true
    },
    {
      "inputs": [
        {
          "internalType": "string",
          "name": "name",
          "type": "string"
        },
        {
          "internalType": "uint256",
          "name": "minimum",
          "type": "uint256"
        },
        {
          "internalType": "string",
          "name": "imageHash",
          "type": "string"
        }
      ],
      "name": "createCampaign",
      "outputs": [],
      "stateMutability": "nonpayable",
      "type": "function"
    },
    {
      "inputs": [],
      "name": "isCampaignAvailable",
      "outputs": [
        {
          "internalType": "bool",
          "name": "",
          "type": "bool"
        }
      ],
      "stateMutability": "view",
      "type": "function",
      "constant": true
    },
    {
      "inputs": [],
      "name": "getDeployedCampaigns",
      "outputs": [
        {
          "internalType": "address[]",
          "name": "",
          "type": "address[]"
        }
      ],
      "stateMutability": "view",
      "type": "function",
      "constant": true
    }
  ],
  "bytecode": "0x608060405234801561001057600080fd5b50612304806100206000396000f3fe60806040523480156200001157600080fd5b50600436106200006f576000357c01000000000000000000000000000000000000000000000000000000009004806337b6ccf414620000745780634acb9d4f14620000aa5780636abdf0c314620000cc578063c47d840414620000ee575b600080fd5b6200009260048036038101906200008c9190620003c8565b6200010e565b604051620000a19190620004fd565b60405180910390f35b620000b46200014e565b604051620000c391906200051a565b60405180910390f35b620000d6620001de565b604051620000e591906200053e565b60405180910390f35b6200010c600480360381019062000106919062000340565b620001fd565b005b600081815481106200011f57600080fd5b906000526020600020016000915054906101000a900473ffffffffffffffffffffffffffffffffffffffff1681565b60606000805480602002602001604051908101604052809291908181526020018280548015620001d457602002820191906000526020600020905b8160009054906101000a900473ffffffffffffffffffffffffffffffffffffffff1673ffffffffffffffffffffffffffffffffffffffff168152602001906001019080831162000189575b5050505050905090565b60008060008054905011620001f5576000620001f8565b60015b905090565b6000838333846040516200021190620002a9565b6200022094939291906200055b565b604051809103906000f0801580156200023d573d6000803e3d6000fd5b5090506000819080600181540180825580915050600190039060005260206000200160009091909190916101000a81548173ffffffffffffffffffffffffffffffffffffffff021916908373ffffffffffffffffffffffffffffffffffffffff16021790555050505050565b611b73806200075c83390190565b6000620002ce620002c884620005ea565b620005b6565b905082815260208101848484011115620002e757600080fd5b620002f4848285620006bc565b509392505050565b600082601f8301126200030e57600080fd5b813562000320848260208601620002b7565b91505092915050565b6000813590506200033a8162000741565b92915050565b6000806000606084860312156200035657600080fd5b600084013567ffffffffffffffff8111156200037157600080fd5b6200037f86828701620002fc565b9350506020620003928682870162000329565b925050604084013567ffffffffffffffff811115620003b057600080fd5b620003be86828701620002fc565b9150509250925092565b600060208284031215620003db57600080fd5b6000620003eb8482850162000329565b91505092915050565b60006200040283836200040e565b60208301905092915050565b620004198162000672565b82525050565b6200042a8162000672565b82525050565b60006200043d826200062d565b62000449818562000650565b935062000456836200061d565b8060005b838110156200048d578151620004718882620003f4565b97506200047e8362000643565b9250506001810190506200045a565b5085935050505092915050565b620004a58162000686565b82525050565b6000620004b88262000638565b620004c4818562000661565b9350620004d6818560208601620006cb565b620004e18162000730565b840191505092915050565b620004f781620006b2565b82525050565b60006020820190506200051460008301846200041f565b92915050565b6000602082019050818103600083015262000536818462000430565b905092915050565b60006020820190506200055560008301846200049a565b92915050565b60006080820190508181036000830152620005778187620004ab565b9050620005886020830186620004ec565b6200059760408301856200041f565b8181036060830152620005ab8184620004ab565b905095945050505050565b6000604051905081810181811067ffffffffffffffff82111715620005e057620005df62000701565b5b8060405250919050565b600067ffffffffffffffff82111562000608576200060762000701565b5b601f19601f8301169050602081019050919050565b6000819050602082019050919050565b600081519050919050565b600081519050919050565b6000602082019050919050565b600082825260208201905092915050565b600082825260208201905092915050565b60006200067f8262000692565b9050919050565b60008115159050919050565b600073ffffffffffffffffffffffffffffffffffffffff82169050919050565b6000819050919050565b82818337600083830152505050565b60005b83811015620006eb578082015181840152602081019050620006ce565b83811115620006fb576000848401525b50505050565b7f4e487b7100000000000000000000000000000000000000000000000000000000600052604160045260246000fd5b6000601f19601f8301169050919050565b6200074c81620006b2565b81146200075857600080fd5b5056fe60806040523480156200001157600080fd5b5060405162001b7338038062001b7383398181016040528101906200003791906200020b565b81600160006101000a81548173ffffffffffffffffffffffffffffffffffffffff021916908373ffffffffffffffffffffffffffffffffffffffff16021790555082600281905550836000908051906020019062000097929190620000bb565b508060089080519060200190620000b0929190620000bb565b50505050506200044c565b828054620000c99062000384565b90600052602060002090601f016020900481019282620000ed576000855562000139565b82601f106200010857805160ff191683800117855562000139565b8280016001018555821562000139579182015b82811115620001385782518255916020019190600101906200011b565b5b5090506200014891906200014c565b5090565b5b80821115620001675760008160009055506001016200014d565b5090565b6000620001826200017c84620002dd565b620002a9565b9050828152602081018484840111156200019b57600080fd5b620001a88482856200034e565b509392505050565b600081519050620001c18162000418565b92915050565b600082601f830112620001d957600080fd5b8151620001eb8482602086016200016b565b91505092915050565b600081519050620002058162000432565b92915050565b600080600080608085870312156200022257600080fd5b600085015167ffffffffffffffff8111156200023d57600080fd5b6200024b87828801620001c7565b94505060206200025e87828801620001f4565b93505060406200027187828801620001b0565b925050606085015167ffffffffffffffff8111156200028f57600080fd5b6200029d87828801620001c7565b91505092959194509250565b6000604051905081810181811067ffffffffffffffff82111715620002d357620002d2620003e9565b5b8060405250919050565b600067ffffffffffffffff821115620002fb57620002fa620003e9565b5b601f19601f8301169050602081019050919050565b60006200031d8262000324565b9050919050565b600073ffffffffffffffffffffffffffffffffffffffff82169050919050565b6000819050919050565b60005b838110156200036e57808201518184015260208101905062000351565b838111156200037e576000848401525b50505050565b600060028204905060018216806200039d57607f821691505b60208210811415620003b457620003b3620003ba565b5b50919050565b7f4e487b7100000000000000000000000000000000000000000000000000000000600052602260045260246000fd5b7f4e487b7100000000000000000000000000000000000000000000000000000000600052604160045260246000fd5b620004238162000310565b81146200042f57600080fd5b50565b6200043d8162000344565b81146200044957600080fd5b50565b611717806200045c6000396000f3fe6080604052600436106100df576000357c0100000000000000000000000000000000000000000000000000000000900480634e08ac851161009c5780638a9cfd55116100765780638a9cfd5514610291578063937e09b1146102ce578063cf569977146102f9578063d7bb99ba14610324576100df565b80634e08ac85146101fc57806381d12c581461022557806382fde09314610266576100df565b806303441006146100e457806306fdde031461010d5780630a144391146101385780634051ddac1461017557806341151405146101a6578063481c6a75146101d1575b600080fd5b3480156100f057600080fd5b5061010b60048036038101906101069190610e60565b61032e565b005b34801561011957600080fd5b50610122610571565b60405161012f919061118c565b60405180910390f35b34801561014457600080fd5b5061015f600480360381019061015a9190610dd0565b6105ff565b60405161016c9190611171565b60405180910390f35b34801561018157600080fd5b5061018a61061f565b60405161019d97969594939291906111ae565b60405180910390f35b3480156101b257600080fd5b506101bb61078d565b6040516101c89190611365565b60405180910390f35b3480156101dd57600080fd5b506101e6610793565b6040516101f39190611156565b60405180910390f35b34801561020857600080fd5b50610223600480360381019061021e9190610e60565b6107b9565b005b34801561023157600080fd5b5061024c60048036038101906102479190610e60565b610963565b60405161025d95949392919061122b565b60405180910390f35b34801561027257600080fd5b5061027b610a4e565b6040516102889190611365565b60405180910390f35b34801561029d57600080fd5b506102b860048036038101906102b39190610df9565b610a54565b6040516102c59190611365565b60405180910390f35b3480156102da57600080fd5b506102e3610baa565b6040516102f09190611365565b60405180910390f35b34801561030557600080fd5b5061030e610bb0565b60405161031b9190611365565b60405180910390f35b61032c610bb6565b005b600160009054906101000a900473ffffffffffffffffffffffffffffffffffffffff1673ffffffffffffffffffffffffffffffffffffffff163373ffffffffffffffffffffffffffffffffffffffff16146103be576040517f08c379a00000000000000000000000000000000000000000000000000000000081526004016103b590611345565b60405180910390fd5b600060046000838152602001908152602001600020905060026006546103e49190611453565b816003015411610429576040517f08c379a0000000000000000000000000000000000000000000000000000000008152600401610420906112e5565b60405180910390fd5b8060020160149054906101000a900460ff161561047b576040517f08c379a000000000000000000000000000000000000000000000000000000000815260040161047290611285565b60405180910390fd5b600754816001015411156104c4576040517f08c379a00000000000000000000000000000000000000000000000000000000081526004016104bb90611325565b60405180910390fd5b8060020160009054906101000a900473ffffffffffffffffffffffffffffffffffffffff1673ffffffffffffffffffffffffffffffffffffffff166108fc82600101549081150290604051600060405180830381858888f19350505050158015610532573d6000803e3d6000fd5b508060010154600760008282546105499190611484565b9250508190555060018160020160146101000a81548160ff0219169083151502179055505050565b6000805461057e90611554565b80601f01602080910402602001604051908101604052809291908181526020018280546105aa90611554565b80156105f75780601f106105cc576101008083540402835291602001916105f7565b820191906000526020600020905b8154815290600101906020018083116105da57829003601f168201915b505050505081565b60036020528060005260406000206000915054906101000a900460ff1681565b6060600080600080600060606000600160009054906101000a900473ffffffffffffffffffffffffffffffffffffffff16600254600554600654600754600886805461066a90611554565b80601f016020809104026020016040519081016040528092919081815260200182805461069690611554565b80156106e35780601f106106b8576101008083540402835291602001916106e3565b820191906000526020600020905b8154815290600101906020018083116106c657829003601f168201915b505050505096508080546106f690611554565b80601f016020809104026020016040519081016040528092919081815260200182805461072290611554565b801561076f5780601f106107445761010080835404028352916020019161076f565b820191906000526020600020905b81548152906001019060200180831161075257829003601f168201915b50505050509050965096509650965096509650965090919293949596565b60075481565b600160009054906101000a900473ffffffffffffffffffffffffffffffffffffffff1681565b6000600460008381526020019081526020016000209050600360003373ffffffffffffffffffffffffffffffffffffffff1673ffffffffffffffffffffffffffffffffffffffff16815260200190815260200160002060009054906101000a900460ff1661085c576040517f08c379a0000000000000000000000000000000000000000000000000000000008152600401610853906112a5565b60405180910390fd5b8060040160003373ffffffffffffffffffffffffffffffffffffffff1673ffffffffffffffffffffffffffffffffffffffff16815260200190815260200160002060009054906101000a900460ff16156108eb576040517f08c379a00000000000000000000000000000000000000000000000000000000081526004016108e2906112c5565b60405180910390fd5b80600301600081548092919061090090611586565b919050555060018160040160003373ffffffffffffffffffffffffffffffffffffffff1673ffffffffffffffffffffffffffffffffffffffff16815260200190815260200160002060006101000a81548160ff0219169083151502179055505050565b600460205280600052604060002060009150905080600001805461098690611554565b80601f01602080910402602001604051908101604052809291908181526020018280546109b290611554565b80156109ff5780601f106109d4576101008083540402835291602001916109ff565b820191906000526020600020905b8154815290600101906020018083116109e257829003601f168201915b5050505050908060010154908060020160009054906101000a900473ffffffffffffffffffffffffffffffffffffffff16908060020160149054906101000a900460ff16908060030154905085565b60065481565b6000600160009054906101000a900473ffffffffffffffffffffffffffffffffffffffff1673ffffffffffffffffffffffffffffffffffffffff163373ffffffffffffffffffffffffffffffffffffffff1614610ae6576040517f08c379a0000000000000000000000000000000000000000000000000000000008152600401610add90611345565b60405180910390fd5b60056000815480929190610af990611586565b919050559050600060046000838152602001908152602001600020905084816000019080519060200190610b2e929190610c86565b50838160010181905550828160020160006101000a81548173ffffffffffffffffffffffffffffffffffffffff021916908373ffffffffffffffffffffffffffffffffffffffff16021790555060008160020160146101000a81548160ff02191690831515021790555060008160030181905550509392505050565b60025481565b60055481565b600254341015610bfb576040517f08c379a0000000000000000000000000000000000000000000000000000000008152600401610bf290611305565b60405180910390fd5b6001600360003373ffffffffffffffffffffffffffffffffffffffff1673ffffffffffffffffffffffffffffffffffffffff16815260200190815260200160002060006101000a81548160ff02191690831515021790555060066000815480929190610c6690611586565b91905055503460076000828254610c7d91906113fd565b92505081905550565b828054610c9290611554565b90600052602060002090601f016020900481019282610cb45760008555610cfb565b82601f10610ccd57805160ff1916838001178555610cfb565b82800160010185558215610cfb579182015b82811115610cfa578251825591602001919060010190610cdf565b5b509050610d089190610d0c565b5090565b5b80821115610d25576000816000905550600101610d0d565b5090565b6000610d3c610d37846113b1565b611380565b905082815260208101848484011115610d5457600080fd5b610d5f848285611512565b509392505050565b600081359050610d768161169c565b92915050565b600081359050610d8b816116b3565b92915050565b600082601f830112610da257600080fd5b8135610db2848260208601610d29565b91505092915050565b600081359050610dca816116ca565b92915050565b600060208284031215610de257600080fd5b6000610df084828501610d67565b91505092915050565b600080600060608486031215610e0e57600080fd5b600084013567ffffffffffffffff811115610e2857600080fd5b610e3486828701610d91565b9350506020610e4586828701610dbb565b9250506040610e5686828701610d7c565b9150509250925092565b600060208284031215610e7257600080fd5b6000610e8084828501610dbb565b91505092915050565b610e92816114ca565b82525050565b610ea1816114b8565b82525050565b610eb0816114dc565b82525050565b6000610ec1826113e1565b610ecb81856113ec565b9350610edb818560208601611521565b610ee48161168b565b840191505092915050565b6000610efc6021836113ec565b91507f5265717565737420616c726561647920686173206265656e2066696e616c697a60008301527f65000000000000000000000000000000000000000000000000000000000000006020830152604082019050919050565b6000610f626013836113ec565b91507f596f752068617665206e6f742066756e646564000000000000000000000000006000830152602082019050919050565b6000610fa26025836113ec565b91507f596f75206861766520616c726561647920617070726f7665642074686520726560008301527f71756573740000000000000000000000000000000000000000000000000000006020830152604082019050919050565b60006110086028836113ec565b91507f446f6e2774206861766520656e6f75676820617070726f76616c7320666f722060008301527f66696e616c697a650000000000000000000000000000000000000000000000006020830152604082019050919050565b600061106e6022836113ec565b91507f506c6561736520706179206174206c65617374206d696e696d756d20616d6f7560008301527f6e740000000000000000000000000000000000000000000000000000000000006020830152604082019050919050565b60006110d4601d836113ec565b91507f5472616e73666572696e67206d6f7265207468616e20696e2066756e640000006000830152602082019050919050565b60006111146016836113ec565b91507f596f7520617265206e6f7420617574686f72697a6564000000000000000000006000830152602082019050919050565b61115081611508565b82525050565b600060208201905061116b6000830184610e98565b92915050565b60006020820190506111866000830184610ea7565b92915050565b600060208201905081810360008301526111a68184610eb6565b905092915050565b600060e08201905081810360008301526111c8818a610eb6565b90506111d76020830189610e98565b6111e46040830188611147565b6111f16060830187611147565b6111fe6080830186611147565b61120b60a0830185611147565b81810360c083015261121d8184610eb6565b905098975050505050505050565b600060a08201905081810360008301526112458188610eb6565b90506112546020830187611147565b6112616040830186610e89565b61126e6060830185610ea7565b61127b6080830184611147565b9695505050505050565b6000602082019050818103600083015261129e81610eef565b9050919050565b600060208201905081810360008301526112be81610f55565b9050919050565b600060208201905081810360008301526112de81610f95565b9050919050565b600060208201905081810360008301526112fe81610ffb565b9050919050565b6000602082019050818103600083015261131e81611061565b9050919050565b6000602082019050818103600083015261133e816110c7565b9050919050565b6000602082019050818103600083015261135e81611107565b9050919050565b600060208201905061137a6000830184611147565b92915050565b6000604051905081810181811067ffffffffffffffff821117156113a7576113a661165c565b5b8060405250919050565b600067ffffffffffffffff8211156113cc576113cb61165c565b5b601f19601f8301169050602081019050919050565b600081519050919050565b600082825260208201905092915050565b600061140882611508565b915061141383611508565b9250827fffffffffffffffffffffffffffffffffffffffffffffffffffffffffffffffff03821115611448576114476115cf565b5b828201905092915050565b600061145e82611508565b915061146983611508565b925082611479576114786115fe565b5b828204905092915050565b600061148f82611508565b915061149a83611508565b9250828210156114ad576114ac6115cf565b5b828203905092915050565b60006114c3826114e8565b9050919050565b60006114d5826114e8565b9050919050565b60008115159050919050565b600073ffffffffffffffffffffffffffffffffffffffff82169050919050565b6000819050919050565b82818337600083830152505050565b60005b8381101561153f578082015181840152602081019050611524565b8381111561154e576000848401525b50505050565b6000600282049050600182168061156c57607f821691505b602082108114156115805761157f61162d565b5b50919050565b600061159182611508565b91507fffffffffffffffffffffffffffffffffffffffffffffffffffffffffffffffff8214156115c4576115c36115cf565b5b600182019050919050565b7f4e487b7100000000000000000000000000000000000000000000000000000000600052601160045260246000fd5b7f4e487b7100000000000000000000000000000000000000000000000000000000600052601260045260246000fd5b7f4e487b7100000000000000000000000000000000000000000000000000000000600052602260045260246000fd5b7f4e487b7100000000000000000000000000000000000000000000000000000000600052604160045260246000fd5b6000601f19601f8301169050919050565b6116a5816114b8565b81146116b057600080fd5b50565b6116bc816114ca565b81146116c757600080fd5b50565b6116d381611508565b81146116de57600080fd5b5056fea2646970667358221220b1c657c555c0f24d87226c1690c767793f9ccb4c15109b96934428d704453ad864736f6c63430008000033a2646970667358221220174a21755da979c9a480becec1439f24dff61a7923f5378faa6776e0f08ab94464736f6c63430008000033",
  "immutableReferences": {},
  "source": "// SPDX-License-Identifier: MIT\r\npragma solidity ^0.8.0;\r\n\r\nimport \"./Campaign.sol\";\r\n\r\ncontract CrowdFunding {\r\n    address[] public numberOfCampaigns;\r\n   \r\n  \r\n\r\n    function createCampaign(string memory name, uint minimum, string memory imageHash) public  {\r\n        Campaign newAddress = new Campaign(name, minimum, msg.sender, imageHash);\r\n        \r\n        numberOfCampaigns.push(address(newAddress));\r\n        \r\n        \r\n    }\r\n\r\n    function isCampaignAvailable() public view returns(bool){\r\n        return numberOfCampaigns.length > 0 ? true : false;\r\n    }\r\n\r\n    function getDeployedCampaigns() public view returns(address[] memory){\r\n       \r\n        return numberOfCampaigns;\r\n    }   \r\n\r\n   \r\n}\r\n\r\n\r\n",
  "sourcePath": "D:\\projects\\etherium\\erc720\\crowdfunding\\contracts\\CrowdFunding.sol",
  "compiler": {
    "name": "solc",
    "version": "0.8.0+commit.c7dfd78e.Emscripten.clang"
  },
  "schemaVersion": "3.4.5",
  "updatedAt": "2022-05-18T10:54:27.870Z",
  "networkType": "ethereum",
  "devdoc": {
    "kind": "dev",
    "methods": {},
    "version": 1
  },
  "userdoc": {
    "kind": "user",
    "methods": {},
    "version": 1
  }
}